{
  "_format": "hh-sol-artifact-1",
  "contractName": "DecentralizedVote",
  "sourceName": "contracts/DecentralizedVote.sol",
  "abi": [
    {
      "inputs": [],
      "stateMutability": "nonpayable",
      "type": "constructor"
    },
    {
      "anonymous": false,
      "inputs": [
        {
          "indexed": true,
          "internalType": "uint256",
          "name": "electionId",
          "type": "uint256"
        },
        {
          "indexed": false,
          "internalType": "string",
          "name": "title",
          "type": "string"
        },
        {
          "indexed": false,
          "internalType": "uint256",
          "name": "startTime",
          "type": "uint256"
        },
        {
          "indexed": false,
          "internalType": "uint256",
          "name": "endTime",
          "type": "uint256"
        }
      ],
      "name": "ElectionCreated",
      "type": "event"
    },
    {
      "anonymous": false,
      "inputs": [
        {
          "indexed": true,
          "internalType": "uint256",
          "name": "electionId",
          "type": "uint256"
        },
        {
          "indexed": false,
          "internalType": "uint256",
          "name": "winnerProposalId",
          "type": "uint256"
        },
        {
          "indexed": false,
          "internalType": "bool",
          "name": "tie",
          "type": "bool"
        },
        {
          "indexed": false,
          "internalType": "uint256",
          "name": "totalVotes",
          "type": "uint256"
        }
      ],
      "name": "ElectionFinalized",
      "type": "event"
    },
    {
      "anonymous": false,
      "inputs": [
        {
          "indexed": true,
          "internalType": "address",
          "name": "previousOwner",
          "type": "address"
        },
        {
          "indexed": true,
          "internalType": "address",
          "name": "newOwner",
          "type": "address"
        }
      ],
      "name": "OwnershipTransferred",
      "type": "event"
    },
    {
      "anonymous": false,
      "inputs": [
        {
          "indexed": true,
          "internalType": "uint256",
          "name": "electionId",
          "type": "uint256"
        },
        {
          "indexed": true,
          "internalType": "uint256",
          "name": "proposalId",
          "type": "uint256"
        },
        {
          "indexed": false,
          "internalType": "string",
          "name": "name",
          "type": "string"
        }
      ],
      "name": "ProposalAdded",
      "type": "event"
    },
    {
      "anonymous": false,
      "inputs": [
        {
          "indexed": true,
          "internalType": "uint256",
          "name": "electionId",
          "type": "uint256"
        },
        {
          "indexed": true,
          "internalType": "uint256",
          "name": "proposalId",
          "type": "uint256"
        },
        {
          "indexed": true,
          "internalType": "address",
          "name": "voter",
          "type": "address"
        }
      ],
      "name": "VoteCast",
      "type": "event"
    },
    {
      "inputs": [
        {
          "internalType": "uint256",
          "name": "electionId",
          "type": "uint256"
        },
        {
          "internalType": "string",
          "name": "name",
          "type": "string"
        }
      ],
      "name": "addProposal",
      "outputs": [
        {
          "internalType": "uint256",
          "name": "proposalId",
          "type": "uint256"
        }
      ],
      "stateMutability": "nonpayable",
      "type": "function"
    },
    {
      "inputs": [
        {
          "internalType": "string",
          "name": "title",
          "type": "string"
        },
        {
          "internalType": "string",
          "name": "description",
          "type": "string"
        },
        {
          "internalType": "uint256",
          "name": "startTime",
          "type": "uint256"
        },
        {
          "internalType": "uint256",
          "name": "endTime",
          "type": "uint256"
        },
        {
          "internalType": "string[]",
          "name": "proposalNames",
          "type": "string[]"
        }
      ],
      "name": "createElection",
      "outputs": [
        {
          "internalType": "uint256",
          "name": "electionId",
          "type": "uint256"
        }
      ],
      "stateMutability": "nonpayable",
      "type": "function"
    },
    {
      "inputs": [
        {
          "internalType": "uint256",
          "name": "electionId",
          "type": "uint256"
        }
      ],
      "name": "finalizeElection",
      "outputs": [],
      "stateMutability": "nonpayable",
      "type": "function"
    },
    {
      "inputs": [
        {
          "internalType": "uint256",
          "name": "electionId",
          "type": "uint256"
        }
      ],
      "name": "getElection",
      "outputs": [
        {
          "components": [
            {
              "internalType": "uint256",
              "name": "id",
              "type": "uint256"
            },
            {
              "internalType": "string",
              "name": "title",
              "type": "string"
            },
            {
              "internalType": "string",
              "name": "description",
              "type": "string"
            },
            {
              "internalType": "uint256",
              "name": "startTime",
              "type": "uint256"
            },
            {
              "internalType": "uint256",
              "name": "endTime",
              "type": "uint256"
            },
            {
              "internalType": "uint256",
              "name": "proposalCount",
              "type": "uint256"
            },
            {
              "internalType": "uint256",
              "name": "totalVotes",
              "type": "uint256"
            },
            {
              "internalType": "enum DecentralizedVote.ElectionStatus",
              "name": "status",
              "type": "uint8"
            },
            {
              "internalType": "bool",
              "name": "finalized",
              "type": "bool"
            },
            {
              "internalType": "uint256",
              "name": "winnerProposalId",
              "type": "uint256"
            },
            {
              "internalType": "bool",
              "name": "tie",
              "type": "bool"
            }
          ],
          "internalType": "struct DecentralizedVote.ElectionView",
          "name": "electionData",
          "type": "tuple"
        }
      ],
      "stateMutability": "view",
      "type": "function"
    },
    {
      "inputs": [],
      "name": "getElectionCount",
      "outputs": [
        {
          "internalType": "uint256",
          "name": "count",
          "type": "uint256"
        }
      ],
      "stateMutability": "view",
      "type": "function"
    },
    {
      "inputs": [
        {
          "internalType": "uint256",
          "name": "electionId",
          "type": "uint256"
        },
        {
          "internalType": "uint256",
          "name": "proposalId",
          "type": "uint256"
        }
      ],
      "name": "getProposal",
      "outputs": [
        {
          "components": [
            {
              "internalType": "uint256",
              "name": "id",
              "type": "uint256"
            },
            {
              "internalType": "string",
              "name": "name",
              "type": "string"
            },
            {
              "internalType": "uint256",
              "name": "voteCount",
              "type": "uint256"
            }
          ],
          "internalType": "struct DecentralizedVote.ProposalView",
          "name": "proposalData",
          "type": "tuple"
        }
      ],
      "stateMutability": "view",
      "type": "function"
    },
    {
      "inputs": [
        {
          "internalType": "uint256",
          "name": "electionId",
          "type": "uint256"
        }
      ],
      "name": "getProposals",
      "outputs": [
        {
          "components": [
            {
              "internalType": "uint256",
              "name": "id",
              "type": "uint256"
            },
            {
              "internalType": "string",
              "name": "name",
              "type": "string"
            },
            {
              "internalType": "uint256",
              "name": "voteCount",
              "type": "uint256"
            }
          ],
          "internalType": "struct DecentralizedVote.ProposalView[]",
          "name": "proposalList",
          "type": "tuple[]"
        }
      ],
      "stateMutability": "view",
      "type": "function"
    },
    {
      "inputs": [
        {
          "internalType": "uint256",
          "name": "electionId",
          "type": "uint256"
        },
        {
          "internalType": "address",
          "name": "voter",
          "type": "address"
        }
      ],
      "name": "getVoterChoice",
      "outputs": [
        {
          "internalType": "uint256",
          "name": "proposalId",
          "type": "uint256"
        }
      ],
      "stateMutability": "view",
      "type": "function"
    },
    {
      "inputs": [
        {
          "internalType": "uint256",
          "name": "electionId",
          "type": "uint256"
        }
      ],
      "name": "getWinningProposal",
      "outputs": [
        {
          "internalType": "uint256",
          "name": "winnerProposalId",
          "type": "uint256"
        },
        {
          "internalType": "string",
          "name": "winnerName",
          "type": "string"
        },
        {
          "internalType": "uint256",
          "name": "winningVoteCount",
          "type": "uint256"
        },
        {
          "internalType": "bool",
          "name": "tie",
          "type": "bool"
        },
        {
          "internalType": "bool",
          "name": "finalized",
          "type": "bool"
        }
      ],
      "stateMutability": "view",
      "type": "function"
    },
    {
      "inputs": [
        {
          "internalType": "uint256",
          "name": "",
          "type": "uint256"
        },
        {
          "internalType": "address",
          "name": "",
          "type": "address"
        }
      ],
      "name": "hasVoted",
      "outputs": [
        {
          "internalType": "bool",
          "name": "",
          "type": "bool"
        }
      ],
      "stateMutability": "view",
      "type": "function"
    },
    {
      "inputs": [],
      "name": "nextElectionId",
      "outputs": [
        {
          "internalType": "uint256",
          "name": "",
          "type": "uint256"
        }
      ],
      "stateMutability": "view",
      "type": "function"
    },
    {
      "inputs": [],
      "name": "owner",
      "outputs": [
        {
          "internalType": "address",
          "name": "",
          "type": "address"
        }
      ],
      "stateMutability": "view",
      "type": "function"
    },
    {
      "inputs": [
        {
          "internalType": "uint256",
          "name": "electionId",
          "type": "uint256"
        }
      ],
      "name": "statusOf",
      "outputs": [
        {
          "internalType": "enum DecentralizedVote.ElectionStatus",
          "name": "status",
          "type": "uint8"
        }
      ],
      "stateMutability": "view",
      "type": "function"
    },
    {
      "inputs": [
        {
          "internalType": "address",
          "name": "newOwner",
          "type": "address"
        }
      ],
      "name": "transferOwnership",
      "outputs": [],
      "stateMutability": "nonpayable",
      "type": "function"
    },
    {
      "inputs": [
        {
          "internalType": "uint256",
          "name": "electionId",
          "type": "uint256"
        },
        {
          "internalType": "uint256",
          "name": "proposalId",
          "type": "uint256"
        }
      ],
      "name": "vote",
      "outputs": [],
      "stateMutability": "nonpayable",
      "type": "function"
    }
  ],
  "bytecode": "0x608060405260018055348015601357600080fd5b50336000806101000a81548173ffffffffffffffffffffffffffffffffffffffff021916908373ffffffffffffffffffffffffffffffffffffffff1602179055503373ffffffffffffffffffffffffffffffffffffffff16600073ffffffffffffffffffffffffffffffffffffffff167f8be0079c531659141344cd1fd0a4f28419497f9722a3daafe3b4186f6b6457e060405160405180910390a36130a0806100be6000396000f3fe608060405234801561001057600080fd5b50600436106100f55760003560e01c80635313837b11610097578063aba2100911610066578063aba21009146102c4578063ad35efd4146102f4578063b384abef14610324578063f2fde38b14610340576100f5565b80635313837b1461022857806377de959f146102465780638da5cb5b146102765780639d71077714610294576100f5565b8063213785a0116100d3578063213785a014610176578063292ca166146101945780632c72fdfc146101c857806343859632146101f8576100f5565b8063051097ef146100fa5780630eac27f41461012a5780631537052e1461015a575b600080fd5b610114600480360381019061010f9190611b5c565b61035c565b6040516101219190611bcb565b60405180910390f35b610144600480360381019061013f9190611c44565b610503565b6040516101519190611bcb565b60405180910390f35b610174600480360381019061016f9190611c84565b6105c3565b005b61017e610771565b60405161018b9190611bcb565b60405180910390f35b6101ae60048036038101906101a99190611c84565b610786565b6040516101bf959493929190611d5c565b60405180910390f35b6101e260048036038101906101dd9190611c84565b6108ff565b6040516101ef9190611f21565b60405180910390f35b610212600480360381019061020d9190611c44565b610af8565b60405161021f9190611f43565b60405180910390f35b610230610b27565b60405161023d9190611bcb565b60405180910390f35b610260600480360381019061025b9190611fb4565b610b2d565b60405161026d9190611bcb565b60405180910390f35b61027e610e33565b60405161028b919061209f565b60405180910390f35b6102ae60048036038101906102a99190611c84565b610e57565b6040516102bb9190612236565b60405180910390f35b6102de60048036038101906102d99190612258565b61109b565b6040516102eb91906122e8565b60405180910390f35b61030e60048036038101906103099190611c84565b611239565b60405161031b9190612319565b60405180910390f35b61033e60048036038101906103399190612258565b61130f565b005b61035a60048036038101906103559190612334565b611665565b005b60008060009054906101000a900473ffffffffffffffffffffffffffffffffffffffff1673ffffffffffffffffffffffffffffffffffffffff163373ffffffffffffffffffffffffffffffffffffffff16146103ed576040517f08c379a00000000000000000000000000000000000000000000000000000000081526004016103e4906123d3565b60405180910390fd5b836002600082815260200190815260200160002060060160009054906101000a900460ff16610451576040517f08c379a00000000000000000000000000000000000000000000000000000000081526004016104489061243f565b60405180910390fd5b84600260008281526020019081526020016000206002015442106104aa576040517f08c379a00000000000000000000000000000000000000000000000000000000081526004016104a1906124ab565b60405180910390fd5b6104f88686868080601f016020809104026020016040519081016040528093929190818152602001838380828437600081840152601f19601f82011690508083019250505050505050611826565b925050509392505050565b6000826002600082815260200190815260200160002060060160009054906101000a900460ff16610569576040517f08c379a00000000000000000000000000000000000000000000000000000000081526004016105609061243f565b60405180910390fd5b6005600085815260200190815260200160002060008473ffffffffffffffffffffffffffffffffffffffff1673ffffffffffffffffffffffffffffffffffffffff1681526020019081526020016000205491505092915050565b806002600082815260200190815260200160002060060160009054906101000a900460ff16610627576040517f08c379a000000000000000000000000000000000000000000000000000000000815260040161061e9061243f565b60405180910390fd5b60006002600084815260200190815260200160002090508060030154421015610685576040517f08c379a000000000000000000000000000000000000000000000000000000000815260040161067c9061253d565b60405180910390fd5b8060060160019054906101000a900460ff16156106d7576040517f08c379a00000000000000000000000000000000000000000000000000000000081526004016106ce906125a9565b60405180910390fd5b6000806106e385611974565b925050915060018360060160016101000a81548160ff021916908315150217905550818360070181905550808360080160006101000a81548160ff021916908315150217905550847f67734c1bdb4e0bb478465a3febe04df058ccee22b487033dc7dbfe698384456b83838660050154604051610762939291906125c9565b60405180910390a25050505050565b600060018054610781919061262f565b905090565b600060606000806000856002600082815260200190815260200160002060060160009054906101000a900460ff166107f3576040517f08c379a00000000000000000000000000000000000000000000000000000000081526004016107ea9061243f565b60405180910390fd5b6107fc87611974565b8095508196508298505050506002600088815260200190815260200160002060060160019054906101000a900460ff1691506000861415801561083d575082155b156108f557600360008881526020019081526020016000206000878152602001908152602001600020600101805461087490612692565b80601f01602080910402602001604051908101604052809291908181526020018280546108a090612692565b80156108ed5780601f106108c2576101008083540402835291602001916108ed565b820191906000526020600020905b8154815290600101906020018083116108d057829003601f168201915b505050505094505b5091939590929450565b6060816002600082815260200190815260200160002060060160009054906101000a900460ff16610965576040517f08c379a000000000000000000000000000000000000000000000000000000000815260040161095c9061243f565b60405180910390fd5b6000600260008581526020019081526020016000206004015490508067ffffffffffffffff81111561099a576109996126c3565b5b6040519080825280602002602001820160405280156109d357816020015b6109c0611a26565b8152602001906001900390816109b85790505b50925060005b81811015610af0576000600360008781526020019081526020016000206000600184610a0591906126f2565b81526020019081526020016000209050604051806060016040528082600001548152602001826001018054610a3990612692565b80601f0160208091040260200160405190810160405280929190818152602001828054610a6590612692565b8015610ab25780601f10610a8757610100808354040283529160200191610ab2565b820191906000526020600020905b815481529060010190602001808311610a9557829003601f168201915b505050505081526020018260020154815250858381518110610ad757610ad6612726565b5b60200260200101819052505080806001019150506109d9565b505050919050565b60046020528160005260406000206020528060005260406000206000915091509054906101000a900460ff1681565b60015481565b60008060009054906101000a900473ffffffffffffffffffffffffffffffffffffffff1673ffffffffffffffffffffffffffffffffffffffff163373ffffffffffffffffffffffffffffffffffffffff1614610bbe576040517f08c379a0000000000000000000000000000000000000000000000000000000008152600401610bb5906123d3565b60405180910390fd5b60008989905011610c04576040517f08c379a0000000000000000000000000000000000000000000000000000000008152600401610bfb906127a1565b60405180910390fd5b428411610c46576040517f08c379a0000000000000000000000000000000000000000000000000000000008152600401610c3d9061280d565b60405180910390fd5b848411610c88576040517f08c379a0000000000000000000000000000000000000000000000000000000008152600401610c7f9061289f565b60405180910390fd5b6002838390501015610ccf576040517f08c379a0000000000000000000000000000000000000000000000000000000008152600401610cc690612931565b60405180910390fd5b600154905060016000815480929190610ce790612951565b919050555060006002600083815260200190815260200160002090508989826000019182610d16929190612b50565b508787826001019182610d2a929190612b50565b5085816002018190555084816003018190555060018160060160006101000a81548160ff021916908315150217905550817fe7a0aae5d733e07e246dea86213a1ac1b0aa8554bde889bb75c12752f44e53d98b8b8989604051610d909493929190612c5c565b60405180910390a260005b84849050811015610e2557610e1783868684818110610dbd57610dbc612726565b5b9050602002810190610dcf9190612cab565b8080601f016020809104026020016040519081016040528093929190818152602001838380828437600081840152601f19601f82011690508083019250505050505050611826565b508080600101915050610d9b565b505098975050505050505050565b60008054906101000a900473ffffffffffffffffffffffffffffffffffffffff1681565b610e5f611a47565b816002600082815260200190815260200160002060060160009054906101000a900460ff16610ec3576040517f08c379a0000000000000000000000000000000000000000000000000000000008152600401610eba9061243f565b60405180910390fd5b6000600260008581526020019081526020016000209050604051806101600160405280858152602001826000018054610efb90612692565b80601f0160208091040260200160405190810160405280929190818152602001828054610f2790612692565b8015610f745780601f10610f4957610100808354040283529160200191610f74565b820191906000526020600020905b815481529060010190602001808311610f5757829003601f168201915b50505050508152602001826001018054610f8d90612692565b80601f0160208091040260200160405190810160405280929190818152602001828054610fb990612692565b80156110065780601f10610fdb57610100808354040283529160200191611006565b820191906000526020600020905b815481529060010190602001808311610fe957829003601f168201915b505050505081526020018260020154815260200182600301548152602001826004015481526020018260050154815260200161104186611239565b6003811115611053576110526120ba565b5b81526020018260060160019054906101000a900460ff1615158152602001826007015481526020018260080160009054906101000a900460ff16151581525092505050919050565b6110a3611a26565b826002600082815260200190815260200160002060060160009054906101000a900460ff16611107576040517f08c379a00000000000000000000000000000000000000000000000000000000081526004016110fe9061243f565b60405180910390fd5b600060036000868152602001908152602001600020600085815260200190815260200160002090508060030160009054906101000a900460ff16611180576040517f08c379a000000000000000000000000000000000000000000000000000000000815260040161117790612d5a565b60405180910390fd5b6040518060600160405280826000015481526020018260010180546111a490612692565b80601f01602080910402602001604051908101604052809291908181526020018280546111d090612692565b801561121d5780601f106111f25761010080835404028352916020019161121d565b820191906000526020600020905b81548152906001019060200180831161120057829003601f168201915b5050505050815260200182600201548152509250505092915050565b6000816002600082815260200190815260200160002060060160009054906101000a900460ff1661129f576040517f08c379a00000000000000000000000000000000000000000000000000000000081526004016112969061243f565b60405180910390fd5b60006002600085815260200190815260200160002090508060060160019054906101000a900460ff16156112d7576003925050611309565b80600201544210156112ed576000925050611309565b8060030154421015611303576001925050611309565b60029250505b50919050565b816002600082815260200190815260200160002060060160009054906101000a900460ff16611373576040517f08c379a000000000000000000000000000000000000000000000000000000000815260040161136a9061243f565b60405180910390fd5b60016003811115611387576113866120ba565b5b61139084611239565b60038111156113a2576113a16120ba565b5b146113e2576040517f08c379a00000000000000000000000000000000000000000000000000000000081526004016113d990612dc6565b60405180910390fd5b6004600084815260200190815260200160002060003373ffffffffffffffffffffffffffffffffffffffff1673ffffffffffffffffffffffffffffffffffffffff16815260200190815260200160002060009054906101000a900460ff1615611480576040517f08c379a000000000000000000000000000000000000000000000000000000000815260040161147790612e58565b60405180910390fd5b60036000848152602001908152602001600020600083815260200190815260200160002060030160009054906101000a900460ff166114f4576040517f08c379a00000000000000000000000000000000000000000000000000000000081526004016114eb90612d5a565b60405180910390fd5b60016004600085815260200190815260200160002060003373ffffffffffffffffffffffffffffffffffffffff1673ffffffffffffffffffffffffffffffffffffffff16815260200190815260200160002060006101000a81548160ff021916908315150217905550816005600085815260200190815260200160002060003373ffffffffffffffffffffffffffffffffffffffff1673ffffffffffffffffffffffffffffffffffffffff1681526020019081526020016000208190555060036000848152602001908152602001600020600083815260200190815260200160002060020160008154809291906115ea90612951565b919050555060026000848152602001908152602001600020600501600081548092919061161690612951565b91905055503373ffffffffffffffffffffffffffffffffffffffff1682847f7fe1d4e6b34e228b5dc059fcdc037c71b216fb2417f47c171e505144a5e4f5fc60405160405180910390a4505050565b60008054906101000a900473ffffffffffffffffffffffffffffffffffffffff1673ffffffffffffffffffffffffffffffffffffffff163373ffffffffffffffffffffffffffffffffffffffff16146116f3576040517f08c379a00000000000000000000000000000000000000000000000000000000081526004016116ea906123d3565b60405180910390fd5b600073ffffffffffffffffffffffffffffffffffffffff168173ffffffffffffffffffffffffffffffffffffffff1603611762576040517f08c379a000000000000000000000000000000000000000000000000000000000815260040161175990612eea565b60405180910390fd5b60008060009054906101000a900473ffffffffffffffffffffffffffffffffffffffff169050816000806101000a81548173ffffffffffffffffffffffffffffffffffffffff021916908373ffffffffffffffffffffffffffffffffffffffff1602179055508173ffffffffffffffffffffffffffffffffffffffff168173ffffffffffffffffffffffffffffffffffffffff167f8be0079c531659141344cd1fd0a4f28419497f9722a3daafe3b4186f6b6457e060405160405180910390a35050565b60008082511161186b576040517f08c379a000000000000000000000000000000000000000000000000000000000815260040161186290612f56565b60405180910390fd5b60006002600085815260200190815260200160002090506001816004015461189391906126f2565b9150818160040181905550604051806080016040528083815260200184815260200160008152602001600115158152506003600086815260200190815260200160002060008481526020019081526020016000206000820151816000015560208201518160010190816119069190612f76565b506040820151816002015560608201518160030160006101000a81548160ff02191690831515021790555090505081847fbb878f2a2e892d9a3562cba951f66485d18cf663715d59785bd1eafe3697a8c3856040516119659190613048565b60405180910390a35092915050565b600080600080600260008681526020019081526020016000206004015490506000600190505b818111611a12576000600360008881526020019081526020016000206000838152602001908152602001600020600201549050848111156119e457809450819550600093506119fe565b84811480156119f35750600081115b156119fd57600193505b5b508080611a0a90612951565b91505061199a565b508115611a1e57600093505b509193909250565b60405180606001604052806000815260200160608152602001600081525090565b6040518061016001604052806000815260200160608152602001606081526020016000815260200160008152602001600081526020016000815260200160006003811115611a9857611a976120ba565b5b8152602001600015158152602001600081526020016000151581525090565b600080fd5b600080fd5b6000819050919050565b611ad481611ac1565b8114611adf57600080fd5b50565b600081359050611af181611acb565b92915050565b600080fd5b600080fd5b600080fd5b60008083601f840112611b1c57611b1b611af7565b5b8235905067ffffffffffffffff811115611b3957611b38611afc565b5b602083019150836001820283011115611b5557611b54611b01565b5b9250929050565b600080600060408486031215611b7557611b74611ab7565b5b6000611b8386828701611ae2565b935050602084013567ffffffffffffffff811115611ba457611ba3611abc565b5b611bb086828701611b06565b92509250509250925092565b611bc581611ac1565b82525050565b6000602082019050611be06000830184611bbc565b92915050565b600073ffffffffffffffffffffffffffffffffffffffff82169050919050565b6000611c1182611be6565b9050919050565b611c2181611c06565b8114611c2c57600080fd5b50565b600081359050611c3e81611c18565b92915050565b60008060408385031215611c5b57611c5a611ab7565b5b6000611c6985828601611ae2565b9250506020611c7a85828601611c2f565b9150509250929050565b600060208284031215611c9a57611c99611ab7565b5b6000611ca884828501611ae2565b91505092915050565b600081519050919050565b600082825260208201905092915050565b60005b83811015611ceb578082015181840152602081019050611cd0565b60008484015250505050565b6000601f19601f8301169050919050565b6000611d1382611cb1565b611d1d8185611cbc565b9350611d2d818560208601611ccd565b611d3681611cf7565b840191505092915050565b60008115159050919050565b611d5681611d41565b82525050565b600060a082019050611d716000830188611bbc565b8181036020830152611d838187611d08565b9050611d926040830186611bbc565b611d9f6060830185611d4d565b611dac6080830184611d4d565b9695505050505050565b600081519050919050565b600082825260208201905092915050565b6000819050602082019050919050565b611deb81611ac1565b82525050565b600082825260208201905092915050565b6000611e0d82611cb1565b611e178185611df1565b9350611e27818560208601611ccd565b611e3081611cf7565b840191505092915050565b6000606083016000830151611e536000860182611de2565b5060208301518482036020860152611e6b8282611e02565b9150506040830151611e806040860182611de2565b508091505092915050565b6000611e978383611e3b565b905092915050565b6000602082019050919050565b6000611eb782611db6565b611ec18185611dc1565b935083602082028501611ed385611dd2565b8060005b85811015611f0f5784840389528151611ef08582611e8b565b9450611efb83611e9f565b925060208a01995050600181019050611ed7565b50829750879550505050505092915050565b60006020820190508181036000830152611f3b8184611eac565b905092915050565b6000602082019050611f586000830184611d4d565b92915050565b60008083601f840112611f7457611f73611af7565b5b8235905067ffffffffffffffff811115611f9157611f90611afc565b5b602083019150836020820283011115611fad57611fac611b01565b5b9250929050565b60008060008060008060008060a0898b031215611fd457611fd3611ab7565b5b600089013567ffffffffffffffff811115611ff257611ff1611abc565b5b611ffe8b828c01611b06565b9850985050602089013567ffffffffffffffff81111561202157612020611abc565b5b61202d8b828c01611b06565b965096505060406120408b828c01611ae2565b94505060606120518b828c01611ae2565b935050608089013567ffffffffffffffff81111561207257612071611abc565b5b61207e8b828c01611f5e565b92509250509295985092959890939650565b61209981611c06565b82525050565b60006020820190506120b46000830184612090565b92915050565b7f4e487b7100000000000000000000000000000000000000000000000000000000600052602160045260246000fd5b600481106120fa576120f96120ba565b5b50565b600081905061210b826120e9565b919050565b600061211b826120fd565b9050919050565b61212b81612110565b82525050565b61213a81611d41565b82525050565b6000610160830160008301516121596000860182611de2565b50602083015184820360208601526121718282611e02565b9150506040830151848203604086015261218b8282611e02565b91505060608301516121a06060860182611de2565b5060808301516121b36080860182611de2565b5060a08301516121c660a0860182611de2565b5060c08301516121d960c0860182611de2565b5060e08301516121ec60e0860182612122565b50610100830151612201610100860182612131565b50610120830151612216610120860182611de2565b5061014083015161222b610140860182612131565b508091505092915050565b600060208201905081810360008301526122508184612140565b905092915050565b6000806040838503121561226f5761226e611ab7565b5b600061227d85828601611ae2565b925050602061228e85828601611ae2565b9150509250929050565b60006060830160008301516122b06000860182611de2565b50602083015184820360208601526122c88282611e02565b91505060408301516122dd6040860182611de2565b508091505092915050565b600060208201905081810360008301526123028184612298565b905092915050565b61231381612110565b82525050565b600060208201905061232e600083018461230a565b92915050565b60006020828403121561234a57612349611ab7565b5b600061235884828501611c2f565b91505092915050565b7f4f6e6c7920746865206f776e65722063616e2063616c6c20746869732066756e60008201527f6374696f6e000000000000000000000000000000000000000000000000000000602082015250565b60006123bd602583611cbc565b91506123c882612361565b604082019050919050565b600060208201905081810360008301526123ec816123b0565b9050919050565b7f456c656374696f6e20646f6573206e6f74206578697374000000000000000000600082015250565b6000612429601783611cbc565b9150612434826123f3565b602082019050919050565b600060208201905081810360008301526124588161241c565b9050919050565b7f456c656374696f6e20616c726561647920737461727465640000000000000000600082015250565b6000612495601883611cbc565b91506124a08261245f565b602082019050919050565b600060208201905081810360008301526124c481612488565b9050919050565b7f456c656374696f6e20646561646c696e6520686173206e6f74206265656e207260008201527f6561636865640000000000000000000000000000000000000000000000000000602082015250565b6000612527602683611cbc565b9150612532826124cb565b604082019050919050565b600060208201905081810360008301526125568161251a565b9050919050565b7f456c656374696f6e20616c72656164792066696e616c697a6564000000000000600082015250565b6000612593601a83611cbc565b915061259e8261255d565b602082019050919050565b600060208201905081810360008301526125c281612586565b9050919050565b60006060820190506125de6000830186611bbc565b6125eb6020830185611d4d565b6125f86040830184611bbc565b949350505050565b7f4e487b7100000000000000000000000000000000000000000000000000000000600052601160045260246000fd5b600061263a82611ac1565b915061264583611ac1565b925082820390508181111561265d5761265c612600565b5b92915050565b7f4e487b7100000000000000000000000000000000000000000000000000000000600052602260045260246000fd5b600060028204905060018216806126aa57607f821691505b6020821081036126bd576126bc612663565b5b50919050565b7f4e487b7100000000000000000000000000000000000000000000000000000000600052604160045260246000fd5b60006126fd82611ac1565b915061270883611ac1565b92508282019050808211156127205761271f612600565b5b92915050565b7f4e487b7100000000000000000000000000000000000000000000000000000000600052603260045260246000fd5b7f5469746c652063616e6e6f7420626520656d7074790000000000000000000000600082015250565b600061278b601583611cbc565b915061279682612755565b602082019050919050565b600060208201905081810360008301526127ba8161277e565b9050919050565b7f456e642074696d65206d75737420626520696e20746865206675747572650000600082015250565b60006127f7601e83611cbc565b9150612802826127c1565b602082019050919050565b60006020820190508181036000830152612826816127ea565b9050919050565b7f456e642074696d65206d7573742062652061667465722073746172742074696d60008201527f6500000000000000000000000000000000000000000000000000000000000000602082015250565b6000612889602183611cbc565b91506128948261282d565b604082019050919050565b600060208201905081810360008301526128b88161287c565b9050919050565b7f4174206c656173742074776f2070726f706f73616c732061726520726571756960008201527f7265640000000000000000000000000000000000000000000000000000000000602082015250565b600061291b602383611cbc565b9150612926826128bf565b604082019050919050565b6000602082019050818103600083015261294a8161290e565b9050919050565b600061295c82611ac1565b91507fffffffffffffffffffffffffffffffffffffffffffffffffffffffffffffffff820361298e5761298d612600565b5b600182019050919050565b600082905092915050565b60008190508160005260206000209050919050565b60006020601f8301049050919050565b600082821b905092915050565b600060088302612a067fffffffffffffffffffffffffffffffffffffffffffffffffffffffffffffffff826129c9565b612a1086836129c9565b95508019841693508086168417925050509392505050565b6000819050919050565b6000612a4d612a48612a4384611ac1565b612a28565b611ac1565b9050919050565b6000819050919050565b612a6783612a32565b612a7b612a7382612a54565b8484546129d6565b825550505050565b600090565b612a90612a83565b612a9b818484612a5e565b505050565b5b81811015612abf57612ab4600082612a88565b600181019050612aa1565b5050565b601f821115612b0457612ad5816129a4565b612ade846129b9565b81016020851015612aed578190505b612b01612af9856129b9565b830182612aa0565b50505b505050565b600082821c905092915050565b6000612b2760001984600802612b09565b1980831691505092915050565b6000612b408383612b16565b9150826002028217905092915050565b612b5a8383612999565b67ffffffffffffffff811115612b7357612b726126c3565b5b612b7d8254612692565b612b88828285612ac3565b6000601f831160018114612bb75760008415612ba5578287013590505b612baf8582612b34565b865550612c17565b601f198416612bc5866129a4565b60005b82811015612bed57848901358255600182019150602085019450602081019050612bc8565b86831015612c0a5784890135612c06601f891682612b16565b8355505b6001600288020188555050505b50505050505050565b82818337600083830152505050565b6000612c3b8385611cbc565b9350612c48838584612c20565b612c5183611cf7565b840190509392505050565b60006060820190508181036000830152612c77818688612c2f565b9050612c866020830185611bbc565b612c936040830184611bbc565b95945050505050565b600080fd5b600080fd5b600080fd5b60008083356001602003843603038112612cc857612cc7612c9c565b5b80840192508235915067ffffffffffffffff821115612cea57612ce9612ca1565b5b602083019250600182023603831315612d0657612d05612ca6565b5b509250929050565b7f50726f706f73616c20646f6573206e6f74206578697374000000000000000000600082015250565b6000612d44601783611cbc565b9150612d4f82612d0e565b602082019050919050565b60006020820190508181036000830152612d7381612d37565b9050919050565b7f456c656374696f6e206973206e6f742061637469766500000000000000000000600082015250565b6000612db0601683611cbc565b9150612dbb82612d7a565b602082019050919050565b60006020820190508181036000830152612ddf81612da3565b9050919050565b7f596f75206861766520616c726561647920766f74656420696e2074686973206560008201527f6c656374696f6e00000000000000000000000000000000000000000000000000602082015250565b6000612e42602783611cbc565b9150612e4d82612de6565b604082019050919050565b60006020820190508181036000830152612e7181612e35565b9050919050565b7f4e6577206f776e65722063616e6e6f7420626520746865207a65726f2061646460008201527f7265737300000000000000000000000000000000000000000000000000000000602082015250565b6000612ed4602483611cbc565b9150612edf82612e78565b604082019050919050565b60006020820190508181036000830152612f0381612ec7565b9050919050565b7f50726f706f73616c206e616d652063616e6e6f7420626520656d707479000000600082015250565b6000612f40601d83611cbc565b9150612f4b82612f0a565b602082019050919050565b60006020820190508181036000830152612f6f81612f33565b9050919050565b612f7f82611cb1565b67ffffffffffffffff811115612f9857612f976126c3565b5b612fa28254612692565b612fad828285612ac3565b600060209050601f831160018114612fe05760008415612fce578287015190505b612fd88582612b34565b865550613040565b601f198416612fee866129a4565b60005b8281101561301657848901518255600182019150602085019450602081019050612ff1565b86831015613033578489015161302f601f891682612b16565b8355505b6001600288020188555050505b505050505050565b600060208201905081810360008301526130628184611d08565b90509291505056fea2646970667358221220b886a1a9f67f9d5cd0f73c9f4849a77f925d75d5416bf2596199fcca06015c7164736f6c634300081c0033",
  "linkReferences": {},
  "deployedLinkReferences": {}
}